:100000000C942A000C9447000C9447000C94470071
:100010000C9447000C9447000C9447000C94470044
:100020000C9447000C9447000C9447000C94470034
:100030000C9447000C9447000C9447000C94470024
:100040000C9447000C9447000C9447000C94470014
:100050000C94470011241FBECFE5D8E0DEBFCDBF12
:1000600010E0A0E6B0E0E6E7F1E002C005900D92F6
:10007000AA36B107D9F720E0AAE6B0E001C01D9288
:10008000AB36B207E1F70E9449000C94B9000C941A
:1000900000000E945A00D09AC0E0D0E0CE010E9439
:1000A000AC0060E670E0CE010E94B000892B09F43C
:1000B000D89AFFCF10BC83E389B988E18AB980B5AB
:1000C000846080BD80B5826080BD80B58F7D80BD3D
:1000D00080B58F7E80BD80B5877F80BD81E08093B5
:1000E0006A000895FC0180916A00882359F081E03C
:1000F00080936A005F9BFECF2CB130E03183208378
:1001000080916A0008950F931F93CF93DF938C0122
:1001100080916A008823D9F081E080936A00662389
:10012000A1F0C801E8016150062F10E00F5F1F4FDA
:10013000080F191FCE010E94720099919D3029F07D
:100140009A3019F0C017D107A9F780916A00DF91A2
:10015000CF911F910F9108956FEF0E948300089532
:10016000FB01DC018D91019080190110D9F3990BED
:060170000895F894FFCF92
:0A0176004D4F48414D45442F7200E3
:00000001FF
